{
  "_format": "hh-sol-artifact-1",
  "contractName": "airdock",
  "sourceName": "contracts/airdock.sol",
  "abi": [
    {
      "inputs": [],
      "stateMutability": "nonpayable",
      "type": "constructor"
    },
    {
      "inputs": [],
      "name": "assertAvailabilty",
      "outputs": [],
      "stateMutability": "view",
      "type": "function"
    },
    {
      "inputs": [
        {
          "internalType": "address",
          "name": "_planeaddress",
          "type": "address"
        }
      ],
      "name": "dockPlane",
      "outputs": [],
      "stateMutability": "nonpayable",
      "type": "function"
    },
    {
      "inputs": [
        {
          "internalType": "uint256",
          "name": "",
          "type": "uint256"
        }
      ],
      "name": "hangeravailability",
      "outputs": [
        {
          "internalType": "bool",
          "name": "",
          "type": "bool"
        }
      ],
      "stateMutability": "view",
      "type": "function"
    },
    {
      "inputs": [],
      "name": "owner",
      "outputs": [
        {
          "internalType": "address",
          "name": "",
          "type": "address"
        }
      ],
      "stateMutability": "view",
      "type": "function"
    },
    {
      "inputs": [
        {
          "internalType": "uint256",
          "name": "",
          "type": "uint256"
        }
      ],
      "name": "planeathanger",
      "outputs": [
        {
          "internalType": "address",
          "name": "",
          "type": "address"
        }
      ],
      "stateMutability": "view",
      "type": "function"
    },
    {
      "inputs": [],
      "name": "total_planes",
      "outputs": [
        {
          "internalType": "uint256",
          "name": "",
          "type": "uint256"
        }
      ],
      "stateMutability": "view",
      "type": "function"
    },
    {
      "inputs": [],
      "name": "totalhangers",
      "outputs": [
        {
          "internalType": "uint256",
          "name": "",
          "type": "uint256"
        }
      ],
      "stateMutability": "view",
      "type": "function"
    },
    {
      "inputs": [
        {
          "internalType": "address",
          "name": "_planeaddress",
          "type": "address"
        }
      ],
      "name": "undockPlane",
      "outputs": [],
      "stateMutability": "nonpayable",
      "type": "function"
    }
  ],
  "bytecode": "0x60806040526006600155600060025534801561001a57600080fd5b50336000806101000a81548173ffffffffffffffffffffffffffffffffffffffff021916908373ffffffffffffffffffffffffffffffffffffffff160217905550610a7a8061006a6000396000f3fe608060405234801561001057600080fd5b50600436106100885760003560e01c80638da5cb5b1161005b5780638da5cb5b14610101578063c4c62cf01461011f578063d70fab0a1461013d578063e09249421461016d57610088565b806322e97fba1461008d5780634291de39146100a95780634d2e3c44146100b357806356cbd882146100d1575b600080fd5b6100a760048036038101906100a2919061069a565b610189565b005b6100b1610349565b005b6100bb61036d565b6040516100c891906106e0565b60405180910390f35b6100eb60048036038101906100e69190610727565b610373565b6040516100f89190610763565b60405180910390f35b6101096103a6565b6040516101169190610763565b60405180910390f35b6101276103ca565b60405161013491906106e0565b60405180910390f35b61015760048036038101906101529190610727565b6103d0565b6040516101649190610799565b60405180910390f35b6101876004803603810190610182919061069a565b6103f0565b005b60008054906101000a900473ffffffffffffffffffffffffffffffffffffffff1673ffffffffffffffffffffffffffffffffffffffff163373ffffffffffffffffffffffffffffffffffffffff1614610217576040517f08c379a000000000000000000000000000000000000000000000000000000000815260040161020e90610811565b60405180910390fd5b60066002541061025c576040517f08c379a00000000000000000000000000000000000000000000000000000000081526004016102539061087d565b60405180910390fd5b6000600190505b6006811161034557600015156003600083815260200190815260200160002060009054906101000a900460ff161515036103325760016003600083815260200190815260200160002060006101000a81548160ff021916908315150217905550816004600083815260200190815260200160002060006101000a81548173ffffffffffffffffffffffffffffffffffffffff021916908373ffffffffffffffffffffffffffffffffffffffff16021790555060026000815480929190610328906108cc565b9190505550610345565b808061033d906108cc565b915050610263565b5050565b600060025411801561035e5750600660025411155b61036b5761036a610914565b5b565b60015481565b60046020528060005260406000206000915054906101000a900473ffffffffffffffffffffffffffffffffffffffff1681565b60008054906101000a900473ffffffffffffffffffffffffffffffffffffffff1681565b60025481565b60036020528060005260406000206000915054906101000a900460ff1681565b60008054906101000a900473ffffffffffffffffffffffffffffffffffffffff1673ffffffffffffffffffffffffffffffffffffffff163373ffffffffffffffffffffffffffffffffffffffff161461047e576040517f08c379a000000000000000000000000000000000000000000000000000000000815260040161047590610811565b60405180910390fd5b6000600254116104c3576040517f08c379a00000000000000000000000000000000000000000000000000000000081526004016104ba9061098f565b60405180910390fd5b600060019050600080600190505b6006811161055a578373ffffffffffffffffffffffffffffffffffffffff166004600083815260200190815260200160002060009054906101000a900473ffffffffffffffffffffffffffffffffffffffff1673ffffffffffffffffffffffffffffffffffffffff160361054757809250600191505b8080610552906108cc565b9150506104d1565b5060006004600084815260200190815260200160002060006101000a81548173ffffffffffffffffffffffffffffffffffffffff021916908373ffffffffffffffffffffffffffffffffffffffff16021790555060006003600084815260200190815260200160002060006101000a81548160ff021916908315150217905550600260008154809291906105ed906109af565b919050555080610632576040517f08c379a000000000000000000000000000000000000000000000000000000000815260040161062990610a24565b60405180910390fd5b505050565b600080fd5b600073ffffffffffffffffffffffffffffffffffffffff82169050919050565b60006106678261063c565b9050919050565b6106778161065c565b811461068257600080fd5b50565b6000813590506106948161066e565b92915050565b6000602082840312156106b0576106af610637565b5b60006106be84828501610685565b91505092915050565b6000819050919050565b6106da816106c7565b82525050565b60006020820190506106f560008301846106d1565b92915050565b610704816106c7565b811461070f57600080fd5b50565b600081359050610721816106fb565b92915050565b60006020828403121561073d5761073c610637565b5b600061074b84828501610712565b91505092915050565b61075d8161065c565b82525050565b60006020820190506107786000830184610754565b92915050565b60008115159050919050565b6107938161077e565b82525050565b60006020820190506107ae600083018461078a565b92915050565b600082825260208201905092915050565b7f4f6e6c79204f776e65722043616e204163636573730000000000000000000000600082015250565b60006107fb6015836107b4565b9150610806826107c5565b602082019050919050565b6000602082019050818103600083015261082a816107ee565b9050919050565b7f6e6f2068616e67657220617661696c61626c6500000000000000000000000000600082015250565b60006108676013836107b4565b915061087282610831565b602082019050919050565b600060208201905081810360008301526108968161085a565b9050919050565b7f4e487b7100000000000000000000000000000000000000000000000000000000600052601160045260246000fd5b60006108d7826106c7565b91507fffffffffffffffffffffffffffffffffffffffffffffffffffffffffffffffff82036109095761090861089d565b5b600182019050919050565b7f4e487b7100000000000000000000000000000000000000000000000000000000600052600160045260246000fd5b7f6e6f20706c616e6520746f2072656d6f76650000000000000000000000000000600082015250565b60006109796012836107b4565b915061098482610943565b602082019050919050565b600060208201905081810360008301526109a88161096c565b9050919050565b60006109ba826106c7565b9150600082036109cd576109cc61089d565b5b600182039050919050565b7f506c616e65204e6f7420466f756e642100000000000000000000000000000000600082015250565b6000610a0e6010836107b4565b9150610a19826109d8565b602082019050919050565b60006020820190508181036000830152610a3d81610a01565b905091905056fea2646970667358221220be9a0d4b93ea2b22381b95f4a0583bdf695ca8fb7e16c95e6e0d03395df75db864736f6c63430008110033",
  "linkReferences": {},
  "deployedLinkReferences": {}
}